{
  "_format": "hh-sol-artifact-1",
  "contractName": "NeonComposabilityInsurance",
  "sourceName": "contracts/NeonComposabilityInsurance.sol",
  "abi": [
    {
      "inputs": [
        {
          "internalType": "address",
          "name": "_splTokenProgram",
          "type": "address"
        },
        {
          "internalType": "address",
          "name": "_systemProgram",
          "type": "address"
        }
      ],
      "stateMutability": "nonpayable",
      "type": "constructor"
    },
    {
      "anonymous": false,
      "inputs": [
        {
          "indexed": true,
          "internalType": "uint256",
          "name": "policyId",
          "type": "uint256"
        },
        {
          "indexed": false,
          "internalType": "address",
          "name": "evmHolder",
          "type": "address"
        },
        {
          "indexed": false,
          "internalType": "bytes32",
          "name": "solanaAccount",
          "type": "bytes32"
        }
      ],
      "name": "CrossChainPolicyCreated",
      "type": "event"
    },
    {
      "anonymous": false,
      "inputs": [
        {
          "indexed": true,
          "internalType": "bytes32",
          "name": "mint",
          "type": "bytes32"
        },
        {
          "indexed": false,
          "internalType": "string",
          "name": "name",
          "type": "string"
        },
        {
          "indexed": false,
          "internalType": "string",
          "name": "symbol",
          "type": "string"
        }
      ],
      "name": "SPLTokenCreated",
      "type": "event"
    },
    {
      "anonymous": false,
      "inputs": [
        {
          "indexed": true,
          "internalType": "bytes32",
          "name": "mint",
          "type": "bytes32"
        },
        {
          "indexed": false,
          "internalType": "uint64",
          "name": "amount",
          "type": "uint64"
        },
        {
          "indexed": false,
          "internalType": "uint256",
          "name": "policyId",
          "type": "uint256"
        }
      ],
      "name": "SolanaTokensLocked",
      "type": "event"
    },
    {
      "anonymous": false,
      "inputs": [
        {
          "indexed": true,
          "internalType": "bytes32",
          "name": "mint",
          "type": "bytes32"
        },
        {
          "indexed": false,
          "internalType": "uint64",
          "name": "amount",
          "type": "uint64"
        },
        {
          "indexed": false,
          "internalType": "address",
          "name": "recipient",
          "type": "address"
        }
      ],
      "name": "SolanaTokensReleased",
      "type": "event"
    },
    {
      "inputs": [
        {
          "internalType": "uint256",
          "name": "coverageAmount",
          "type": "uint256"
        },
        {
          "internalType": "uint256",
          "name": "duration",
          "type": "uint256"
        },
        {
          "internalType": "string",
          "name": "riskType",
          "type": "string"
        },
        {
          "internalType": "bytes32",
          "name": "solanaAccount",
          "type": "bytes32"
        }
      ],
      "name": "createCrossChainPolicy",
      "outputs": [],
      "stateMutability": "payable",
      "type": "function"
    },
    {
      "inputs": [
        {
          "internalType": "uint256",
          "name": "",
          "type": "uint256"
        }
      ],
      "name": "crossChainPolicies",
      "outputs": [
        {
          "internalType": "uint256",
          "name": "id",
          "type": "uint256"
        },
        {
          "internalType": "address",
          "name": "evm_holder",
          "type": "address"
        },
        {
          "internalType": "bytes32",
          "name": "solana_account",
          "type": "bytes32"
        },
        {
          "internalType": "uint256",
          "name": "coverage_amount",
          "type": "uint256"
        },
        {
          "internalType": "uint256",
          "name": "premium_paid",
          "type": "uint256"
        },
        {
          "internalType": "string",
          "name": "risk_type",
          "type": "string"
        },
        {
          "internalType": "uint64",
          "name": "solana_tokens_locked",
          "type": "uint64"
        },
        {
          "internalType": "bool",
          "name": "active",
          "type": "bool"
        },
        {
          "internalType": "uint256",
          "name": "created_at",
          "type": "uint256"
        },
        {
          "internalType": "uint256",
          "name": "expires_at",
          "type": "uint256"
        }
      ],
      "stateMutability": "view",
      "type": "function"
    },
    {
      "inputs": [
        {
          "internalType": "address",
          "name": "targetAccount",
          "type": "address"
        },
        {
          "internalType": "uint64",
          "name": "lamports",
          "type": "uint64"
        }
      ],
      "name": "crossRuntimeTransfer",
      "outputs": [],
      "stateMutability": "payable",
      "type": "function"
    },
    {
      "inputs": [
        {
          "internalType": "address",
          "name": "recipient",
          "type": "address"
        },
        {
          "internalType": "uint64",
          "name": "amount",
          "type": "uint64"
        }
      ],
      "name": "emergencyMint",
      "outputs": [],
      "stateMutability": "nonpayable",
      "type": "function"
    },
    {
      "inputs": [],
      "name": "getPoolStats",
      "outputs": [
        {
          "components": [
            {
              "internalType": "uint256",
              "name": "totalPolicies",
              "type": "uint256"
            },
            {
              "internalType": "uint256",
              "name": "totalCoverage",
              "type": "uint256"
            },
            {
              "internalType": "uint256",
              "name": "totalPremiums",
              "type": "uint256"
            },
            {
              "internalType": "uint256",
              "name": "activeClaims",
              "type": "uint256"
            },
            {
              "internalType": "uint256",
              "name": "paidClaims",
              "type": "uint256"
            }
          ],
          "internalType": "struct NeonComposabilityInsurance.PoolStats",
          "name": "",
          "type": "tuple"
        }
      ],
      "stateMutability": "view",
      "type": "function"
    },
    {
      "inputs": [
        {
          "internalType": "address",
          "name": "account",
          "type": "address"
        }
      ],
      "name": "getSPLTokenBalance",
      "outputs": [
        {
          "internalType": "uint64",
          "name": "",
          "type": "uint64"
        }
      ],
      "stateMutability": "view",
      "type": "function"
    },
    {
      "inputs": [],
      "name": "getSPLTokenSupply",
      "outputs": [
        {
          "internalType": "uint64",
          "name": "",
          "type": "uint64"
        }
      ],
      "stateMutability": "view",
      "type": "function"
    },
    {
      "inputs": [
        {
          "internalType": "address",
          "name": "user",
          "type": "address"
        }
      ],
      "name": "getUserCrossChainPolicies",
      "outputs": [
        {
          "internalType": "uint256[]",
          "name": "",
          "type": "uint256[]"
        }
      ],
      "stateMutability": "view",
      "type": "function"
    },
    {
      "inputs": [],
      "name": "nextCrossChainPolicyId",
      "outputs": [
        {
          "internalType": "uint256",
          "name": "",
          "type": "uint256"
        }
      ],
      "stateMutability": "view",
      "type": "function"
    },
    {
      "inputs": [],
      "name": "poolStats",
      "outputs": [
        {
          "internalType": "uint256",
          "name": "totalPolicies",
          "type": "uint256"
        },
        {
          "internalType": "uint256",
          "name": "totalCoverage",
          "type": "uint256"
        },
        {
          "internalType": "uint256",
          "name": "totalPremiums",
          "type": "uint256"
        },
        {
          "internalType": "uint256",
          "name": "activeClaims",
          "type": "uint256"
        },
        {
          "internalType": "uint256",
          "name": "paidClaims",
          "type": "uint256"
        }
      ],
      "stateMutability": "view",
      "type": "function"
    },
    {
      "inputs": [
        {
          "internalType": "uint256",
          "name": "policyId",
          "type": "uint256"
        },
        {
          "internalType": "uint256",
          "name": "claimAmount",
          "type": "uint256"
        },
        {
          "internalType": "bytes32",
          "name": "proof",
          "type": "bytes32"
        }
      ],
      "name": "processCrossChainClaim",
      "outputs": [],
      "stateMutability": "nonpayable",
      "type": "function"
    },
    {
      "inputs": [],
      "name": "securePoolToken",
      "outputs": [
        {
          "internalType": "bytes32",
          "name": "",
          "type": "bytes32"
        }
      ],
      "stateMutability": "view",
      "type": "function"
    },
    {
      "inputs": [],
      "name": "splTokenProgram",
      "outputs": [
        {
          "internalType": "contract INeonSPLToken",
          "name": "",
          "type": "address"
        }
      ],
      "stateMutability": "view",
      "type": "function"
    },
    {
      "inputs": [
        {
          "internalType": "uint256",
          "name": "amount",
          "type": "uint256"
        }
      ],
      "name": "stakeForInsuranceTokens",
      "outputs": [],
      "stateMutability": "payable",
      "type": "function"
    },
    {
      "inputs": [],
      "name": "systemProgram",
      "outputs": [
        {
          "internalType": "contract INeonSystemProgram",
          "name": "",
          "type": "address"
        }
      ],
      "stateMutability": "view",
      "type": "function"
    },
    {
      "inputs": [
        {
          "internalType": "address",
          "name": "",
          "type": "address"
        },
        {
          "internalType": "uint256",
          "name": "",
          "type": "uint256"
        }
      ],
      "name": "userCrossChainPolicies",
      "outputs": [
        {
          "internalType": "uint256",
          "name": "",
          "type": "uint256"
        }
      ],
      "stateMutability": "view",
      "type": "function"
    }
  ],
  "bytecode": "0x60c060405260016008553480156200001657600080fd5b50604051620018bd380380620018bd83398101604081905262000039916200011d565b6001600160a01b03808316608081905290821660a052604051633c43b8f960e21b815263f10ee3e4906200007590600990309060040162000155565b6020604051808303816000875af115801562000095573d6000803e3d6000fd5b505050506040513d601f19601f82011682018060405250810190620000bb9190620001da565b60008190556040517f39b96727ae2bc7d0630619c84c740d108550986fdc30dd5cd17ceec28d23c9b190620000f090620001f4565b60405180910390a250506200025e565b80516001600160a01b03811681146200011857600080fd5b919050565b600080604083850312156200013157600080fd5b6200013c8362000100565b91506200014c6020840162000100565b90509250929050565b6080815260006200019360808301601a81527f536563757265506f6f6c20496e737572616e636520546f6b656e000000000000602082015260400190565b8281036020840152620001b88160058152645350494e5360d81b602082015260400190565b60ff95909516604084015250506001600160a01b039190911660609091015290565b600060208284031215620001ed57600080fd5b5051919050565b6040815260006200023260408301601a81527f536563757265506f6f6c20496e737572616e636520546f6b656e000000000000602082015260400190565b8281036020840152620002578160058152645350494e5360d81b602082015260400190565b9392505050565b60805160a051611601620002bc60003960008181610277015281816107790152610ada015260008181610215015281816103c201528181610523015281816105850152818161067d01528181610b710152610df501526116016000f3fe6080604052600436106100f35760003560e01c80639e6ea1e21161008a578063bbb8518811610059578063bbb85188146102cf578063ecc68b2c14610326578063ef13a60e14610346578063f540a21f1461035957600080fd5b80639e6ea1e214610203578063b412b0861461024f578063b6f09cdd14610265578063b706fd911461029957600080fd5b80636962d98f116100c65780636962d98f1461019857806378936f29146101c55780638e668cef146101da57806393fb476b146101f057600080fd5b80631f2aab4b146100f85780635061e9901461011a57806353a732821461014d5780636360863914610160575b600080fd5b34801561010457600080fd5b50610118610113366004611115565b6103a8565b005b34801561012657600080fd5b5061013a61013536600461114c565b610430565b6040519081526020015b60405180910390f35b61011861015b366004611176565b610461565b34801561016c57600080fd5b5061018061017b36600461118f565b61055a565b6040516001600160401b039091168152602001610144565b3480156101a457600080fd5b506101b86101b336600461118f565b6105f6565b60405161014491906111b1565b3480156101d157600080fd5b50610180610662565b3480156101e657600080fd5b5061013a60005481565b6101186101fe366004611115565b6106f5565b34801561020f57600080fd5b506102377f000000000000000000000000000000000000000000000000000000000000000081565b6040516001600160a01b039091168152602001610144565b34801561025b57600080fd5b5061013a60085481565b34801561027157600080fd5b506102377f000000000000000000000000000000000000000000000000000000000000000081565b3480156102a557600080fd5b506102b96102b4366004611176565b6107a8565b6040516101449a999897969594939291906111f5565b3480156102db57600080fd5b506102e461089a565b6040516101449190600060a082019050825182526020830151602083015260408301516040830152606083015160608301526080830151608083015292915050565b34801561033257600080fd5b506101186103413660046112a5565b610901565b6101186103543660046112e7565b610c64565b34801561036557600080fd5b50600354600454600554600654600754610380949392919085565b604080519586526020860194909452928401919091526060830152608082015260a001610144565b60005460405163134e4f1f60e31b81526001600160a01b037f00000000000000000000000000000000000000000000000000000000000000001691639a7278f8916103fa9190869086906004016113b2565b600060405180830381600087803b15801561041457600080fd5b505af1158015610428573d6000803e3d6000fd5b505050505050565b6002602052816000526040600020818154811061044c57600080fd5b90600052602060002001600091509150505481565b8034146104a65760405162461bcd60e51b815260206004820152600e60248201526d0acc2d8eaca40dad2e6dac2e8c6d60931b60448201526064015b60405180910390fd5b600081116104f65760405162461bcd60e51b815260206004820152601760248201527f416d6f756e74206d75737420626520706f736974697665000000000000000000604482015260640161049d565b6000610506633b9aca00836113f0565b60005460405163134e4f1f60e31b81529192506001600160a01b037f00000000000000000000000000000000000000000000000000000000000000001691639a7278f8916103fa91339086906004016113b2565b6000805460405163221a947b60e11b815260048101919091526001600160a01b0383811660248301527f0000000000000000000000000000000000000000000000000000000000000000169063443528f690604401602060405180830381865afa1580156105cc573d6000803e3d6000fd5b505050506040513d601f19601f820116820180604052508101906105f09190611412565b92915050565b6001600160a01b03811660009081526002602090815260409182902080548351818402810184019094528084526060939283018282801561065657602002820191906000526020600020905b815481526020019060010190808311610642575b50505050509050919050565b6000805460405163a47f4b2b60e01b815260048101919091527f00000000000000000000000000000000000000000000000000000000000000006001600160a01b03169063a47f4b2b90602401602060405180830381865afa1580156106cc573d6000803e3d6000fd5b505050506040513d601f19601f820116820180604052508101906106f09190611412565b905090565b806001600160401b03163410156107455760405162461bcd60e51b8152602060048201526014602482015273125b9cdd59999a58da595b9d081c185e5b595b9d60621b604482015260640161049d565b604051631518459d60e11b81523060048201526001600160a01b0383811660248301526001600160401b03831660448301527f00000000000000000000000000000000000000000000000000000000000000001690632a308b3a906064016103fa565b60016020819052600091825260409091208054918101546002820154600383015460048401546005850180546001600160a01b03909516959394929391926107ef9061142f565b80601f016020809104026020016040519081016040528092919081815260200182805461081b9061142f565b80156108685780601f1061083d57610100808354040283529160200191610868565b820191906000526020600020905b81548152906001019060200180831161084b57829003601f168201915b505050506006830154600784015460089094015492936001600160401b03821693600160401b90920460ff169250908a565b6108cc6040518060a0016040528060008152602001600081526020016000815260200160008152602001600081525090565b506040805160a08101825260035481526004546020820152600554918101919091526006546060820152600754608082015290565b6000838152600160208190526040909120908101546001600160a01b031633146109615760405162461bcd60e51b81526020600482015260116024820152702737ba103837b634b1bc903437b63232b960791b604482015260640161049d565b6006810154600160401b900460ff166109b05760405162461bcd60e51b8152602060048201526011602482015270506f6c696379206e6f742061637469766560781b604482015260640161049d565b80600801544211156109f55760405162461bcd60e51b815260206004820152600e60248201526d141bdb1a58de48195e1c1a5c995960921b604482015260640161049d565b8060030154831115610a425760405162461bcd60e51b8152602060048201526016602482015275436c61696d206578636565647320636f76657261676560501b604482015260640161049d565b81610a7f5760405162461bcd60e51b815260206004820152600d60248201526c24b73b30b634b210383937b7b360991b604482015260640161049d565b6003810154600682015460009190610aa19086906001600160401b0316611469565b610aab91906113f0565b6040516321a4d15960e01b8152336004820152620f4240602482015260006044820181905260648201529091507f00000000000000000000000000000000000000000000000000000000000000006001600160a01b0316906321a4d15990608401600060405180830381600087803b158015610b2657600080fd5b505af1158015610b3a573d6000803e3d6000fd5b505060005460405163518ff6c160e01b815260048101919091523060248201523360448201526001600160401b03841660648201527f00000000000000000000000000000000000000000000000000000000000000006001600160a01b0316925063518ff6c19150608401600060405180830381600087803b158015610bbf57600080fd5b505af1158015610bd3573d6000803e3d6000fd5b5050506006808401805468ff000000000000000019169055805491506000610bfa83611480565b91905055508360036004016000828254610c149190611499565b9091555050600054604080516001600160401b03841681523360208201527f5aa320e80938a57e6ced2e1d8373cb9886396539c20a4edc3cb5a75e1c75db52910160405180910390a25050505050565b60008411610cb45760405162461bcd60e51b815260206004820152601960248201527f436f766572616765206d75737420626520706f73697469766500000000000000604482015260640161049d565b62278d008310158015610ccb57506301e133808311155b610d0a5760405162461bcd60e51b815260206004820152601060248201526f24b73b30b634b210323ab930ba34b7b760811b604482015260640161049d565b80610d505760405162461bcd60e51b8152602060048201526016602482015275125b9d985b1a590814dbdb185b98481858d8dbdd5b9d60521b604482015260640161049d565b600064496cebb80084610d648760c8611469565b610d6e9190611469565b610d7891906113f0565b905080341015610dca5760405162461bcd60e51b815260206004820152601c60248201527f496e73756666696369656e74207072656d69756d207061796d656e7400000000604482015260640161049d565b6000610dd86103e8876113f0565b60005460405163134e4f1f60e31b81529192506001600160a01b037f00000000000000000000000000000000000000000000000000000000000000001691639a7278f891610e2c91309086906004016113b2565b600060405180830381600087803b158015610e4657600080fd5b505af1158015610e5a573d6000803e3d6000fd5b5050505060006040518061014001604052806008548152602001336001600160a01b03168152602001858152602001888152602001848152602001868152602001836001600160401b031681526020016001151581526020014281526020018742610ec59190611499565b9052600854600090815260016020818152604092839020845181559084015191810180546001600160a01b0319166001600160a01b0390931692909217909155908201516002820155606082015160038201556080820151600482015560a082015191925082916005820190610f3b90826114f9565b5060c082015160068201805460e08501511515600160401b0268ffffffffffffffffff199091166001600160401b0390931692909217919091179055610100820151600782015561012090910151600891820155336000908152600260209081526040822092548354600181018555938352908220909201919091556003805491610fc583611480565b91905055508660036001016000828254610fdf9190611499565b909155505060058054849190600090610ff9908490611499565b909155505060085460408051338152602081018790527fb98f6eba30a6b37971453465e3728077e0cff9267142969370a5b31f4cf6c918910160405180910390a2600054600854604080516001600160401b038616815260208101929092527f82a35b8c836ce87351bc9b938905697ee12081815549da5c0c7095f4866d6206910160405180910390a26008805490600061109383611480565b9190505550823411156110d857336108fc6110ae85346115b8565b6040518115909202916000818181858888f193505050501580156110d6573d6000803e3d6000fd5b505b50505050505050565b80356001600160a01b03811681146110f857600080fd5b919050565b6001600160401b038116811461111257600080fd5b50565b6000806040838503121561112857600080fd5b611131836110e1565b91506020830135611141816110fd565b809150509250929050565b6000806040838503121561115f57600080fd5b611168836110e1565b946020939093013593505050565b60006020828403121561118857600080fd5b5035919050565b6000602082840312156111a157600080fd5b6111aa826110e1565b9392505050565b6020808252825182820181905260009190848201906040850190845b818110156111e9578351835292840192918401916001016111cd565b50909695505050505050565b60006101408c8352602060018060a01b038d1660208501528b60408501528a60608501528960808501528160a085015288518083860152600092505b8083101561125057898301820151858401610160015291810191611231565b6101609250600083828701015282601f19601f830116860101935050505061128360c08301876001600160401b03169052565b84151560e0830152610100820193909352610120015298975050505050505050565b6000806000606084860312156112ba57600080fd5b505081359360208301359350604090920135919050565b634e487b7160e01b600052604160045260246000fd5b600080600080608085870312156112fd57600080fd5b843593506020850135925060408501356001600160401b038082111561132257600080fd5b818701915087601f83011261133657600080fd5b813581811115611348576113486112d1565b604051601f8201601f19908116603f01168101908382118183101715611370576113706112d1565b816040528281528a602084870101111561138957600080fd5b826020860160208301376000928101602001929092525095989497509495606001359450505050565b9283526001600160a01b039190911660208301526001600160401b0316604082015260600190565b634e487b7160e01b600052601160045260246000fd5b60008261140d57634e487b7160e01b600052601260045260246000fd5b500490565b60006020828403121561142457600080fd5b81516111aa816110fd565b600181811c9082168061144357607f821691505b60208210810361146357634e487b7160e01b600052602260045260246000fd5b50919050565b80820281158282048414176105f0576105f06113da565b600060018201611492576114926113da565b5060010190565b808201808211156105f0576105f06113da565b601f8211156114f4576000816000526020600020601f850160051c810160208610156114d55750805b601f850160051c820191505b81811015610428578281556001016114e1565b505050565b81516001600160401b03811115611512576115126112d1565b61152681611520845461142f565b846114ac565b602080601f83116001811461155b57600084156115435750858301515b600019600386901b1c1916600185901b178555610428565b600085815260208120601f198616915b8281101561158a5788860151825594840194600190910190840161156b565b50858210156115a85787850151600019600388901b60f8161c191681555b5050505050600190811b01905550565b818103818111156105f0576105f06113da56fea264697066735822122083e2be3b75f3895db1c84995d6ea58a42fb3b8e24ad85333584493758a753a0464736f6c63430008180033",
  "linkReferences": {},
  "deployedLinkReferences": {}
}