{
  "_format": "hh-sol-artifact-1",
  "contractName": "SecurePoolInsurance",
  "sourceName": "contracts/SecurePoolInsurance.sol",
  "abi": [
    {
      "inputs": [
        {
          "internalType": "address",
          "name": "_paymentToken",
          "type": "address"
        }
      ],
      "stateMutability": "nonpayable",
      "type": "constructor"
    },
    {
      "anonymous": false,
      "inputs": [
        {
          "indexed": true,
          "internalType": "uint256",
          "name": "policyId",
          "type": "uint256"
        },
        {
          "indexed": false,
          "internalType": "uint256",
          "name": "payoutAmount",
          "type": "uint256"
        }
      ],
      "name": "ClaimApproved",
      "type": "event"
    },
    {
      "anonymous": false,
      "inputs": [
        {
          "indexed": true,
          "internalType": "uint256",
          "name": "policyId",
          "type": "uint256"
        },
        {
          "indexed": true,
          "internalType": "address",
          "name": "policyholder",
          "type": "address"
        },
        {
          "indexed": false,
          "internalType": "uint256",
          "name": "claimAmount",
          "type": "uint256"
        }
      ],
      "name": "ClaimSubmitted",
      "type": "event"
    },
    {
      "anonymous": false,
      "inputs": [
        {
          "indexed": true,
          "internalType": "address",
          "name": "provider",
          "type": "address"
        },
        {
          "indexed": false,
          "internalType": "uint256",
          "name": "amount",
          "type": "uint256"
        }
      ],
      "name": "LiquidityProvided",
      "type": "event"
    },
    {
      "anonymous": false,
      "inputs": [
        {
          "indexed": true,
          "internalType": "address",
          "name": "previousOwner",
          "type": "address"
        },
        {
          "indexed": true,
          "internalType": "address",
          "name": "newOwner",
          "type": "address"
        }
      ],
      "name": "OwnershipTransferred",
      "type": "event"
    },
    {
      "anonymous": false,
      "inputs": [
        {
          "indexed": true,
          "internalType": "uint256",
          "name": "policyId",
          "type": "uint256"
        },
        {
          "indexed": true,
          "internalType": "address",
          "name": "policyholder",
          "type": "address"
        },
        {
          "indexed": false,
          "internalType": "uint256",
          "name": "coverageAmount",
          "type": "uint256"
        }
      ],
      "name": "PolicyPurchased",
      "type": "event"
    },
    {
      "anonymous": false,
      "inputs": [
        {
          "indexed": true,
          "internalType": "address",
          "name": "provider",
          "type": "address"
        },
        {
          "indexed": false,
          "internalType": "uint256",
          "name": "amount",
          "type": "uint256"
        }
      ],
      "name": "RewardsDistributed",
      "type": "event"
    },
    {
      "inputs": [],
      "name": "MAX_COVERAGE",
      "outputs": [
        {
          "internalType": "uint256",
          "name": "",
          "type": "uint256"
        }
      ],
      "stateMutability": "view",
      "type": "function"
    },
    {
      "inputs": [],
      "name": "MIN_COVERAGE",
      "outputs": [
        {
          "internalType": "uint256",
          "name": "",
          "type": "uint256"
        }
      ],
      "stateMutability": "view",
      "type": "function"
    },
    {
      "inputs": [],
      "name": "PREMIUM_RATE",
      "outputs": [
        {
          "internalType": "uint256",
          "name": "",
          "type": "uint256"
        }
      ],
      "stateMutability": "view",
      "type": "function"
    },
    {
      "inputs": [
        {
          "internalType": "uint256",
          "name": "coverageAmount",
          "type": "uint256"
        },
        {
          "internalType": "uint256",
          "name": "duration",
          "type": "uint256"
        }
      ],
      "name": "calculatePremium",
      "outputs": [
        {
          "internalType": "uint256",
          "name": "",
          "type": "uint256"
        }
      ],
      "stateMutability": "pure",
      "type": "function"
    },
    {
      "inputs": [],
      "name": "capitalPool",
      "outputs": [
        {
          "internalType": "uint256",
          "name": "totalDeposits",
          "type": "uint256"
        },
        {
          "internalType": "uint256",
          "name": "availableLiquidity",
          "type": "uint256"
        },
        {
          "internalType": "uint256",
          "name": "lockedLiquidity",
          "type": "uint256"
        },
        {
          "internalType": "uint256",
          "name": "totalRewards",
          "type": "uint256"
        }
      ],
      "stateMutability": "view",
      "type": "function"
    },
    {
      "inputs": [],
      "name": "getCapitalPoolStats",
      "outputs": [
        {
          "internalType": "uint256",
          "name": "totalDeposits",
          "type": "uint256"
        },
        {
          "internalType": "uint256",
          "name": "availableLiquidity",
          "type": "uint256"
        },
        {
          "internalType": "uint256",
          "name": "lockedLiquidity",
          "type": "uint256"
        },
        {
          "internalType": "uint256",
          "name": "totalRewards",
          "type": "uint256"
        }
      ],
      "stateMutability": "view",
      "type": "function"
    },
    {
      "inputs": [
        {
          "internalType": "address",
          "name": "user",
          "type": "address"
        }
      ],
      "name": "getUserCapitalPosition",
      "outputs": [
        {
          "internalType": "uint256",
          "name": "deposits",
          "type": "uint256"
        },
        {
          "internalType": "uint256",
          "name": "rewards",
          "type": "uint256"
        }
      ],
      "stateMutability": "view",
      "type": "function"
    },
    {
      "inputs": [
        {
          "internalType": "address",
          "name": "user",
          "type": "address"
        }
      ],
      "name": "getUserPolicies",
      "outputs": [
        {
          "internalType": "uint256[]",
          "name": "",
          "type": "uint256[]"
        }
      ],
      "stateMutability": "view",
      "type": "function"
    },
    {
      "inputs": [],
      "name": "nextPolicyId",
      "outputs": [
        {
          "internalType": "uint256",
          "name": "",
          "type": "uint256"
        }
      ],
      "stateMutability": "view",
      "type": "function"
    },
    {
      "inputs": [],
      "name": "owner",
      "outputs": [
        {
          "internalType": "address",
          "name": "",
          "type": "address"
        }
      ],
      "stateMutability": "view",
      "type": "function"
    },
    {
      "inputs": [],
      "name": "paymentToken",
      "outputs": [
        {
          "internalType": "contract IERC20",
          "name": "",
          "type": "address"
        }
      ],
      "stateMutability": "view",
      "type": "function"
    },
    {
      "inputs": [
        {
          "internalType": "uint256",
          "name": "",
          "type": "uint256"
        }
      ],
      "name": "policies",
      "outputs": [
        {
          "internalType": "uint256",
          "name": "id",
          "type": "uint256"
        },
        {
          "internalType": "address",
          "name": "policyholder",
          "type": "address"
        },
        {
          "internalType": "uint256",
          "name": "coverageAmount",
          "type": "uint256"
        },
        {
          "internalType": "uint256",
          "name": "premiumPaid",
          "type": "uint256"
        },
        {
          "internalType": "uint256",
          "name": "startTime",
          "type": "uint256"
        },
        {
          "internalType": "uint256",
          "name": "endTime",
          "type": "uint256"
        },
        {
          "internalType": "bool",
          "name": "isActive",
          "type": "bool"
        },
        {
          "internalType": "bool",
          "name": "claimed",
          "type": "bool"
        },
        {
          "internalType": "string",
          "name": "riskType",
          "type": "string"
        }
      ],
      "stateMutability": "view",
      "type": "function"
    },
    {
      "inputs": [
        {
          "internalType": "uint256",
          "name": "amount",
          "type": "uint256"
        }
      ],
      "name": "provideLiquidity",
      "outputs": [],
      "stateMutability": "nonpayable",
      "type": "function"
    },
    {
      "inputs": [
        {
          "internalType": "uint256",
          "name": "coverageAmount",
          "type": "uint256"
        },
        {
          "internalType": "uint256",
          "name": "duration",
          "type": "uint256"
        },
        {
          "internalType": "string",
          "name": "riskType",
          "type": "string"
        }
      ],
      "name": "purchasePolicy",
      "outputs": [],
      "stateMutability": "nonpayable",
      "type": "function"
    },
    {
      "inputs": [],
      "name": "renounceOwnership",
      "outputs": [],
      "stateMutability": "nonpayable",
      "type": "function"
    },
    {
      "inputs": [
        {
          "internalType": "uint256",
          "name": "policyId",
          "type": "uint256"
        },
        {
          "internalType": "uint256",
          "name": "claimAmount",
          "type": "uint256"
        },
        {
          "internalType": "string",
          "name": "evidence",
          "type": "string"
        }
      ],
      "name": "submitClaim",
      "outputs": [],
      "stateMutability": "nonpayable",
      "type": "function"
    },
    {
      "inputs": [
        {
          "internalType": "address",
          "name": "newOwner",
          "type": "address"
        }
      ],
      "name": "transferOwnership",
      "outputs": [],
      "stateMutability": "nonpayable",
      "type": "function"
    },
    {
      "inputs": [
        {
          "internalType": "address",
          "name": "",
          "type": "address"
        },
        {
          "internalType": "uint256",
          "name": "",
          "type": "uint256"
        }
      ],
      "name": "userPolicies",
      "outputs": [
        {
          "internalType": "uint256",
          "name": "",
          "type": "uint256"
        }
      ],
      "stateMutability": "view",
      "type": "function"
    },
    {
      "inputs": [
        {
          "internalType": "uint256",
          "name": "amount",
          "type": "uint256"
        }
      ],
      "name": "withdrawLiquidity",
      "outputs": [],
      "stateMutability": "nonpayable",
      "type": "function"
    }
  ],
  "bytecode": "0x60a06040526001600a5534801561001557600080fd5b50604051611767380380611767833981016040819052610034916100a5565b600160005561004233610053565b6001600160a01b03166080526100d5565b600180546001600160a01b038381166001600160a01b0319831681179093556040519116919082907f8be0079c531659141344cd1fd0a4f28419497f9722a3daafe3b4186f6b6457e090600090a35050565b6000602082840312156100b757600080fd5b81516001600160a01b03811681146100ce57600080fd5b9392505050565b60805161165b61010c600039600081816101b00152818161066a015281816109ad01528181610d880152611030015261165b6000f3fe608060405234801561001057600080fd5b50600436106101205760003560e01c8063715018a6116100ad578063acc4b36f11610071578063acc4b36f146102b9578063cad0b8db146102cc578063d3e89483146102d5578063eb521a4c146102fd578063f2fde38b1461031057600080fd5b8063715018a6146102335780638da5cb5b1461023b5780639efa0aa91461024c578063a62bf53a1461025d578063abb12472146102a857600080fd5b80631cb27ba4116100f45780631cb27ba4146101935780632925993d1461019b5780633013ce29146101ab5780633d36adc5146101ea5780635bfb7508146101fd57600080fd5b806212100c1461012557806306964de71461014b5780630a861f2a1461016057806319ac461414610173575b600080fd5b6101386101333660046111cc565b610323565b6040519081526020015b60405180910390f35b61015e610159366004611204565b610354565b005b61015e61016e3660046112c8565b61054d565b6101866101813660046112fd565b61072a565b6040516101429190611318565b61013860c881565b610138683635c9adc5dea0000081565b6101d27f000000000000000000000000000000000000000000000000000000000000000081565b6040516001600160a01b039091168152602001610142565b6101386101f836600461135c565b610796565b6004546005546006546007546102139392919084565b604080519485526020850193909352918301526060820152608001610142565b61015e6107c7565b6001546001600160a01b03166101d2565b61013869d3c21bcecceda100000081565b61029361026b3660046112fd565b6001600160a01b03166000908152600860209081526040808320546009909252909120549091565b60408051928352602083019190915201610142565b600454600554600654600754610213565b61015e6102c7366004611204565b6107db565b610138600a5481565b6102e86102e33660046112c8565b610c27565b60405161014299989796959493929190611386565b61015e61030b3660046112c8565b610d0e565b61015e61031e3660046112fd565b610ed2565b600064496cebb8008261033760c88661143a565b610341919061143a565b61034b9190611451565b90505b92915050565b61035c610f48565b600083815260026020526040902060018101546001600160a01b031633146103bf5760405162461bcd60e51b81526020600482015260116024820152702737ba103837b634b1bc903437b63232b960791b60448201526064015b60405180910390fd5b600681015460ff166104075760405162461bcd60e51b8152602060048201526011602482015270506f6c696379206e6f742061637469766560781b60448201526064016103b6565b6006810154610100900460ff16156104535760405162461bcd60e51b815260206004820152600f60248201526e105b1c9958591e4818db185a5b5959608a1b60448201526064016103b6565b80600501544211156104985760405162461bcd60e51b815260206004820152600e60248201526d141bdb1a58de48195e1c1a5c995960921b60448201526064016103b6565b80600201548311156104e55760405162461bcd60e51b8152602060048201526016602482015275436c61696d206578636565647320636f76657261676560501b60448201526064016103b6565b604051838152339085907f01bc0f9d4f6b0c66e2bda5f433d9760d7eb48e89b73ffea517a7ba5e4fe0657d9060200160405180910390a36002816002015461052d9190611451565b831161053d5761053d8484610fa1565b506105486001600055565b505050565b610555610f48565b336000908152600860205260409020548111156105ab5760405162461bcd60e51b8152602060048201526014602482015273496e73756666696369656e742062616c616e636560601b60448201526064016103b6565b6005548111156105f65760405162461bcd60e51b8152602060048201526016602482015275496e73756666696369656e74206c697175696469747960501b60448201526064016103b6565b3360009081526008602052604081208054839290610615908490611473565b90915550506004805482919060009061062f908490611473565b909155505060058054829190600090610649908490611473565b909155505060405163a9059cbb60e01b8152336004820152602481018290527f00000000000000000000000000000000000000000000000000000000000000006001600160a01b03169063a9059cbb906044016020604051808303816000875af11580156106bb573d6000803e3d6000fd5b505050506040513d601f19601f820116820180604052508101906106df9190611486565b61071d5760405162461bcd60e51b815260206004820152600f60248201526e151c985b9cd9995c8819985a5b1959608a1b60448201526064016103b6565b6107276001600055565b50565b6001600160a01b03811660009081526003602090815260409182902080548351818402810184019094528084526060939283018282801561078a57602002820191906000526020600020905b815481526020019060010190808311610776575b50505050509050919050565b600360205281600052604060002081815481106107b257600080fd5b90600052602060002001600091509150505481565b6107cf611120565b6107d9600061117a565b565b6107e3610f48565b683635c9adc5dea000008310156108355760405162461bcd60e51b8152602060048201526016602482015275436f7665726167652062656c6f77206d696e696d756d60501b60448201526064016103b6565b69d3c21bcecceda10000008311156108885760405162461bcd60e51b8152602060048201526016602482015275436f7665726167652061626f7665206d6178696d756d60501b60448201526064016103b6565b62278d008210156108db5760405162461bcd60e51b815260206004820152601860248201527f4d696e696d756d203330206461797320636f766572616765000000000000000060448201526064016103b6565b6301e1338082111561092f5760405162461bcd60e51b815260206004820152601960248201527f4d6178696d756d20333635206461797320636f7665726167650000000000000060448201526064016103b6565b600061093b8484610323565b905083600460010154101561098b5760405162461bcd60e51b8152602060048201526016602482015275496e73756666696369656e74206c697175696469747960501b60448201526064016103b6565b6040516323b872dd60e01b8152336004820152306024820152604481018290527f00000000000000000000000000000000000000000000000000000000000000006001600160a01b0316906323b872dd906064016020604051808303816000875af11580156109fe573d6000803e3d6000fd5b505050506040513d601f19601f82011682018060405250810190610a229190611486565b610a6e5760405162461bcd60e51b815260206004820152601760248201527f5072656d69756d207472616e73666572206661696c656400000000000000000060448201526064016103b6565b6000604051806101200160405280600a548152602001336001600160a01b031681526020018681526020018381526020014281526020018542610ab191906114af565b815260016020808301829052600060408085018290526060948501899052600a548252600280845291819020865181559286015193830180546001600160a01b0319166001600160a01b039095169490941790935591840151918101919091559082015160038201556080820151600482015560a0820151600582015560c082015160068201805460e085015161ffff1990911692151561ff00191692909217610100921515830217905582015191925082916007820190610b73908261154c565b50503360009081526003602090815260408220600a548154600181018355918452918320015560058054889350909190610bae908490611473565b909155505060068054869190600090610bc89084906114af565b9091555050600a546040518681523391907f95b12f586a70e031f18e62742c53fbfce9f4f2951ed9686b8aab253fc7cc39969060200160405180910390a3600a8054906000610c168361160c565b919050555050506105486001600055565b60026020819052600091825260409091208054600182015492820154600383015460048401546005850154600686015460078701805496986001600160a01b031697959694959394929360ff808416946101009094041692909190610c8b906114c2565b80601f0160208091040260200160405190810160405280929190818152602001828054610cb7906114c2565b8015610d045780601f10610cd957610100808354040283529160200191610d04565b820191906000526020600020905b815481529060010190602001808311610ce757829003601f168201915b5050505050905089565b610d16610f48565b60008111610d665760405162461bcd60e51b815260206004820152601760248201527f416d6f756e74206d75737420626520706f73697469766500000000000000000060448201526064016103b6565b6040516323b872dd60e01b8152336004820152306024820152604481018290527f00000000000000000000000000000000000000000000000000000000000000006001600160a01b0316906323b872dd906064016020604051808303816000875af1158015610dd9573d6000803e3d6000fd5b505050506040513d601f19601f82011682018060405250810190610dfd9190611486565b610e3b5760405162461bcd60e51b815260206004820152600f60248201526e151c985b9cd9995c8819985a5b1959608a1b60448201526064016103b6565b3360009081526008602052604081208054839290610e5a9084906114af565b909155505060048054829190600090610e749084906114af565b909155505060058054829190600090610e8e9084906114af565b909155505060405181815233907fccb2ae3a2936bf4c94fa4e12cdf0cdad6ed0e4888a044cef89afa60f2e4b92d39060200160405180910390a26107276001600055565b610eda611120565b6001600160a01b038116610f3f5760405162461bcd60e51b815260206004820152602660248201527f4f776e61626c653a206e6577206f776e657220697320746865207a65726f206160448201526564647265737360d01b60648201526084016103b6565b6107278161117a565b600260005403610f9a5760405162461bcd60e51b815260206004820152601f60248201527f5265656e7472616e637947756172643a207265656e7472616e742063616c6c0060448201526064016103b6565b6002600055565b600082815260026020819052604082206006808201805461ffff19166101001790559181015482549193909291610fd9908490611473565b90915550506002810154610fee908390611473565b600580546000906110009084906114af565b9091555050600181015460405163a9059cbb60e01b81526001600160a01b039182166004820152602481018490527f00000000000000000000000000000000000000000000000000000000000000009091169063a9059cbb906044016020604051808303816000875af115801561107b573d6000803e3d6000fd5b505050506040513d601f19601f8201168201806040525081019061109f9190611486565b6110e15760405162461bcd60e51b815260206004820152601360248201527210db185a5b481c185e5bdd5d0819985a5b1959606a1b60448201526064016103b6565b827f638d892b8630b775fea5d7a52b209e8bfa1d90c32b57cd37208ac84d4bcd6dcb8360405161111391815260200190565b60405180910390a2505050565b6001546001600160a01b031633146107d95760405162461bcd60e51b815260206004820181905260248201527f4f776e61626c653a2063616c6c6572206973206e6f7420746865206f776e657260448201526064016103b6565b600180546001600160a01b038381166001600160a01b0319831681179093556040519116919082907f8be0079c531659141344cd1fd0a4f28419497f9722a3daafe3b4186f6b6457e090600090a35050565b600080604083850312156111df57600080fd5b50508035926020909101359150565b634e487b7160e01b600052604160045260246000fd5b60008060006060848603121561121957600080fd5b8335925060208401359150604084013567ffffffffffffffff8082111561123f57600080fd5b818601915086601f83011261125357600080fd5b813581811115611265576112656111ee565b604051601f8201601f19908116603f0116810190838211818310171561128d5761128d6111ee565b816040528281528960208487010111156112a657600080fd5b8260208601602083013760006020848301015280955050505050509250925092565b6000602082840312156112da57600080fd5b5035919050565b80356001600160a01b03811681146112f857600080fd5b919050565b60006020828403121561130f57600080fd5b61034b826112e1565b6020808252825182820181905260009190848201906040850190845b8181101561135057835183529284019291840191600101611334565b50909695505050505050565b6000806040838503121561136f57600080fd5b611378836112e1565b946020939093013593505050565b60006101208b8352602060018060a01b038c1660208501528a60408501528960608501528860808501528760a085015286151560c085015285151560e08501528161010085015284518083860152600092505b808310156113f8578583018201518584016101400152918101916113d9565b6101409250600083828701015282601f19601f83011686010193505050509a9950505050505050505050565b634e487b7160e01b600052601160045260246000fd5b808202811582820484141761034e5761034e611424565b60008261146e57634e487b7160e01b600052601260045260246000fd5b500490565b8181038181111561034e5761034e611424565b60006020828403121561149857600080fd5b815180151581146114a857600080fd5b9392505050565b8082018082111561034e5761034e611424565b600181811c908216806114d657607f821691505b6020821081036114f657634e487b7160e01b600052602260045260246000fd5b50919050565b601f821115610548576000816000526020600020601f850160051c810160208610156115255750805b601f850160051c820191505b8181101561154457828155600101611531565b505050505050565b815167ffffffffffffffff811115611566576115666111ee565b61157a8161157484546114c2565b846114fc565b602080601f8311600181146115af57600084156115975750858301515b600019600386901b1c1916600185901b178555611544565b600085815260208120601f198616915b828110156115de578886015182559484019460019091019084016115bf565b50858210156115fc5787850151600019600388901b60f8161c191681555b5050505050600190811b01905550565b60006001820161161e5761161e611424565b506001019056fea264697066735822122025da8f3a579f3d7e627fc9b17e9a4290e51da7f1d8dcd91462715f6d31e99c2664736f6c63430008180033",
  "linkReferences": {},
  "deployedLinkReferences": {}
}