{
  "_format": "hh-sol-artifact-1",
  "contractName": "MockERC20",
  "sourceName": "contracts/MockERC20.sol",
  "abi": [
    {
      "inputs": [
        {
          "internalType": "string",
          "name": "name",
          "type": "string"
        },
        {
          "internalType": "string",
          "name": "symbol",
          "type": "string"
        },
        {
          "internalType": "uint256",
          "name": "initialSupply",
          "type": "uint256"
        }
      ],
      "stateMutability": "nonpayable",
      "type": "constructor"
    },
    {
      "anonymous": false,
      "inputs": [
        {
          "indexed": true,
          "internalType": "address",
          "name": "owner",
          "type": "address"
        },
        {
          "indexed": true,
          "internalType": "address",
          "name": "spender",
          "type": "address"
        },
        {
          "indexed": false,
          "internalType": "uint256",
          "name": "value",
          "type": "uint256"
        }
      ],
      "name": "Approval",
      "type": "event"
    },
    {
      "anonymous": false,
      "inputs": [
        {
          "indexed": true,
          "internalType": "address",
          "name": "previousOwner",
          "type": "address"
        },
        {
          "indexed": true,
          "internalType": "address",
          "name": "newOwner",
          "type": "address"
        }
      ],
      "name": "OwnershipTransferred",
      "type": "event"
    },
    {
      "anonymous": false,
      "inputs": [
        {
          "indexed": true,
          "internalType": "address",
          "name": "from",
          "type": "address"
        },
        {
          "indexed": true,
          "internalType": "address",
          "name": "to",
          "type": "address"
        },
        {
          "indexed": false,
          "internalType": "uint256",
          "name": "value",
          "type": "uint256"
        }
      ],
      "name": "Transfer",
      "type": "event"
    },
    {
      "inputs": [
        {
          "internalType": "address",
          "name": "owner",
          "type": "address"
        },
        {
          "internalType": "address",
          "name": "spender",
          "type": "address"
        }
      ],
      "name": "allowance",
      "outputs": [
        {
          "internalType": "uint256",
          "name": "",
          "type": "uint256"
        }
      ],
      "stateMutability": "view",
      "type": "function"
    },
    {
      "inputs": [
        {
          "internalType": "address",
          "name": "spender",
          "type": "address"
        },
        {
          "internalType": "uint256",
          "name": "amount",
          "type": "uint256"
        }
      ],
      "name": "approve",
      "outputs": [
        {
          "internalType": "bool",
          "name": "",
          "type": "bool"
        }
      ],
      "stateMutability": "nonpayable",
      "type": "function"
    },
    {
      "inputs": [
        {
          "internalType": "address",
          "name": "account",
          "type": "address"
        }
      ],
      "name": "balanceOf",
      "outputs": [
        {
          "internalType": "uint256",
          "name": "",
          "type": "uint256"
        }
      ],
      "stateMutability": "view",
      "type": "function"
    },
    {
      "inputs": [],
      "name": "decimals",
      "outputs": [
        {
          "internalType": "uint8",
          "name": "",
          "type": "uint8"
        }
      ],
      "stateMutability": "view",
      "type": "function"
    },
    {
      "inputs": [
        {
          "internalType": "address",
          "name": "spender",
          "type": "address"
        },
        {
          "internalType": "uint256",
          "name": "subtractedValue",
          "type": "uint256"
        }
      ],
      "name": "decreaseAllowance",
      "outputs": [
        {
          "internalType": "bool",
          "name": "",
          "type": "bool"
        }
      ],
      "stateMutability": "nonpayable",
      "type": "function"
    },
    {
      "inputs": [],
      "name": "faucet",
      "outputs": [],
      "stateMutability": "nonpayable",
      "type": "function"
    },
    {
      "inputs": [
        {
          "internalType": "address",
          "name": "spender",
          "type": "address"
        },
        {
          "internalType": "uint256",
          "name": "addedValue",
          "type": "uint256"
        }
      ],
      "name": "increaseAllowance",
      "outputs": [
        {
          "internalType": "bool",
          "name": "",
          "type": "bool"
        }
      ],
      "stateMutability": "nonpayable",
      "type": "function"
    },
    {
      "inputs": [
        {
          "internalType": "address",
          "name": "to",
          "type": "address"
        },
        {
          "internalType": "uint256",
          "name": "amount",
          "type": "uint256"
        }
      ],
      "name": "mint",
      "outputs": [],
      "stateMutability": "nonpayable",
      "type": "function"
    },
    {
      "inputs": [],
      "name": "name",
      "outputs": [
        {
          "internalType": "string",
          "name": "",
          "type": "string"
        }
      ],
      "stateMutability": "view",
      "type": "function"
    },
    {
      "inputs": [],
      "name": "owner",
      "outputs": [
        {
          "internalType": "address",
          "name": "",
          "type": "address"
        }
      ],
      "stateMutability": "view",
      "type": "function"
    },
    {
      "inputs": [],
      "name": "renounceOwnership",
      "outputs": [],
      "stateMutability": "nonpayable",
      "type": "function"
    },
    {
      "inputs": [],
      "name": "symbol",
      "outputs": [
        {
          "internalType": "string",
          "name": "",
          "type": "string"
        }
      ],
      "stateMutability": "view",
      "type": "function"
    },
    {
      "inputs": [],
      "name": "totalSupply",
      "outputs": [
        {
          "internalType": "uint256",
          "name": "",
          "type": "uint256"
        }
      ],
      "stateMutability": "view",
      "type": "function"
    },
    {
      "inputs": [
        {
          "internalType": "address",
          "name": "to",
          "type": "address"
        },
        {
          "internalType": "uint256",
          "name": "amount",
          "type": "uint256"
        }
      ],
      "name": "transfer",
      "outputs": [
        {
          "internalType": "bool",
          "name": "",
          "type": "bool"
        }
      ],
      "stateMutability": "nonpayable",
      "type": "function"
    },
    {
      "inputs": [
        {
          "internalType": "address",
          "name": "from",
          "type": "address"
        },
        {
          "internalType": "address",
          "name": "to",
          "type": "address"
        },
        {
          "internalType": "uint256",
          "name": "amount",
          "type": "uint256"
        }
      ],
      "name": "transferFrom",
      "outputs": [
        {
          "internalType": "bool",
          "name": "",
          "type": "bool"
        }
      ],
      "stateMutability": "nonpayable",
      "type": "function"
    },
    {
      "inputs": [
        {
          "internalType": "address",
          "name": "newOwner",
          "type": "address"
        }
      ],
      "name": "transferOwnership",
      "outputs": [],
      "stateMutability": "nonpayable",
      "type": "function"
    }
  ],
  "bytecode": "0x60806040523480156200001157600080fd5b506040516200127638038062001276833981016040819052620000349162000287565b828260036200004483826200038a565b5060046200005382826200038a565b505050620000706200006a6200009e60201b60201c565b620000a2565b6200009533620000836012600a6200056b565b6200008f908462000583565b620000f4565b505050620005b3565b3390565b600580546001600160a01b038381166001600160a01b0319831681179093556040519116919082907f8be0079c531659141344cd1fd0a4f28419497f9722a3daafe3b4186f6b6457e090600090a35050565b6001600160a01b0382166200014f5760405162461bcd60e51b815260206004820152601f60248201527f45524332303a206d696e7420746f20746865207a65726f206164647265737300604482015260640160405180910390fd5b80600260008282546200016391906200059d565b90915550506001600160a01b038216600081815260208181526040808320805486019055518481527fddf252ad1be2c89b69c2b068fc378daa952ba7f163c4a11628f55a4df523b3ef910160405180910390a35050565b505050565b634e487b7160e01b600052604160045260246000fd5b600082601f830112620001e757600080fd5b81516001600160401b0380821115620002045762000204620001bf565b604051601f8301601f19908116603f011681019082821181831017156200022f576200022f620001bf565b81604052838152602092508660208588010111156200024d57600080fd5b600091505b8382101562000271578582018301518183018401529082019062000252565b6000602085830101528094505050505092915050565b6000806000606084860312156200029d57600080fd5b83516001600160401b0380821115620002b557600080fd5b620002c387838801620001d5565b94506020860151915080821115620002da57600080fd5b50620002e986828701620001d5565b925050604084015190509250925092565b600181811c908216806200030f57607f821691505b6020821081036200033057634e487b7160e01b600052602260045260246000fd5b50919050565b601f821115620001ba576000816000526020600020601f850160051c81016020861015620003615750805b601f850160051c820191505b8181101562000382578281556001016200036d565b505050505050565b81516001600160401b03811115620003a657620003a6620001bf565b620003be81620003b78454620002fa565b8462000336565b602080601f831160018114620003f65760008415620003dd5750858301515b600019600386901b1c1916600185901b17855562000382565b600085815260208120601f198616915b82811015620004275788860151825594840194600190910190840162000406565b5085821015620004465787850151600019600388901b60f8161c191681555b5050505050600190811b01905550565b634e487b7160e01b600052601160045260246000fd5b600181815b80851115620004ad57816000190482111562000491576200049162000456565b808516156200049f57918102915b93841c939080029062000471565b509250929050565b600082620004c65750600162000565565b81620004d55750600062000565565b8160018114620004ee5760028114620004f95762000519565b600191505062000565565b60ff8411156200050d576200050d62000456565b50506001821b62000565565b5060208310610133831016604e8410600b84101617156200053e575081810a62000565565b6200054a83836200046c565b806000190482111562000561576200056162000456565b0290505b92915050565b60006200057c60ff841683620004b5565b9392505050565b808202811582820484141762000565576200056562000456565b8082018082111562000565576200056562000456565b610cb380620005c36000396000f3fe608060405234801561001057600080fd5b50600436106101005760003560e01c8063715018a611610097578063a9059cbb11610066578063a9059cbb14610209578063dd62ed3e1461021c578063de5f72fd1461022f578063f2fde38b1461023757600080fd5b8063715018a6146101cb5780638da5cb5b146101d357806395d89b41146101ee578063a457c2d7146101f657600080fd5b8063313ce567116100d3578063313ce5671461016b578063395093511461017a57806340c10f191461018d57806370a08231146101a257600080fd5b806306fdde0314610105578063095ea7b31461012357806318160ddd1461014657806323b872dd14610158575b600080fd5b61010d61024a565b60405161011a91906109ea565b60405180910390f35b610136610131366004610a55565b6102dc565b604051901515815260200161011a565b6002545b60405190815260200161011a565b610136610166366004610a7f565b6102f6565b6040516012815260200161011a565b610136610188366004610a55565b61031a565b6101a061019b366004610a55565b61033c565b005b61014a6101b0366004610abb565b6001600160a01b031660009081526020819052604090205490565b6101a0610352565b6005546040516001600160a01b03909116815260200161011a565b61010d610366565b610136610204366004610a55565b610375565b610136610217366004610a55565b6103f5565b61014a61022a366004610add565b610403565b6101a061042e565b6101a0610245366004610abb565b6104c4565b60606003805461025990610b10565b80601f016020809104026020016040519081016040528092919081815260200182805461028590610b10565b80156102d25780601f106102a7576101008083540402835291602001916102d2565b820191906000526020600020905b8154815290600101906020018083116102b557829003601f168201915b5050505050905090565b6000336102ea81858561053d565b60019150505b92915050565b600033610304858285610661565b61030f8585856106db565b506001949350505050565b6000336102ea81858561032d8383610403565b6103379190610b60565b61053d565b61034461087f565b61034e82826108d9565b5050565b61035a61087f565b6103646000610998565b565b60606004805461025990610b10565b600033816103838286610403565b9050838110156103e85760405162461bcd60e51b815260206004820152602560248201527f45524332303a2064656372656173656420616c6c6f77616e63652062656c6f77604482015264207a65726f60d81b60648201526084015b60405180910390fd5b61030f828686840361053d565b6000336102ea8185856106db565b6001600160a01b03918216600090815260016020908152604080832093909416825291909152205490565b61043a6012600a610c57565b61044690612710610c66565b33600090815260208190526040902054106104a35760405162461bcd60e51b815260206004820152601960248201527f416c72656164792068617320656e6f75676820746f6b656e730000000000000060448201526064016103df565b610364336104b36012600a610c57565b6104bf906103e8610c66565b6108d9565b6104cc61087f565b6001600160a01b0381166105315760405162461bcd60e51b815260206004820152602660248201527f4f776e61626c653a206e6577206f776e657220697320746865207a65726f206160448201526564647265737360d01b60648201526084016103df565b61053a81610998565b50565b6001600160a01b03831661059f5760405162461bcd60e51b8152602060048201526024808201527f45524332303a20617070726f76652066726f6d20746865207a65726f206164646044820152637265737360e01b60648201526084016103df565b6001600160a01b0382166106005760405162461bcd60e51b815260206004820152602260248201527f45524332303a20617070726f766520746f20746865207a65726f206164647265604482015261737360f01b60648201526084016103df565b6001600160a01b0383811660008181526001602090815260408083209487168084529482529182902085905590518481527f8c5be1e5ebec7d5bd14f71427d1e84f3dd0314c0f7b2291e5b200ac8c7c3b925910160405180910390a3505050565b600061066d8484610403565b905060001981146106d557818110156106c85760405162461bcd60e51b815260206004820152601d60248201527f45524332303a20696e73756666696369656e7420616c6c6f77616e636500000060448201526064016103df565b6106d5848484840361053d565b50505050565b6001600160a01b03831661073f5760405162461bcd60e51b815260206004820152602560248201527f45524332303a207472616e736665722066726f6d20746865207a65726f206164604482015264647265737360d81b60648201526084016103df565b6001600160a01b0382166107a15760405162461bcd60e51b815260206004820152602360248201527f45524332303a207472616e7366657220746f20746865207a65726f206164647260448201526265737360e81b60648201526084016103df565b6001600160a01b038316600090815260208190526040902054818110156108195760405162461bcd60e51b815260206004820152602660248201527f45524332303a207472616e7366657220616d6f756e7420657863656564732062604482015265616c616e636560d01b60648201526084016103df565b6001600160a01b03848116600081815260208181526040808320878703905593871680835291849020805487019055925185815290927fddf252ad1be2c89b69c2b068fc378daa952ba7f163c4a11628f55a4df523b3ef910160405180910390a36106d5565b6005546001600160a01b031633146103645760405162461bcd60e51b815260206004820181905260248201527f4f776e61626c653a2063616c6c6572206973206e6f7420746865206f776e657260448201526064016103df565b6001600160a01b03821661092f5760405162461bcd60e51b815260206004820152601f60248201527f45524332303a206d696e7420746f20746865207a65726f20616464726573730060448201526064016103df565b80600260008282546109419190610b60565b90915550506001600160a01b038216600081815260208181526040808320805486019055518481527fddf252ad1be2c89b69c2b068fc378daa952ba7f163c4a11628f55a4df523b3ef910160405180910390a35050565b600580546001600160a01b038381166001600160a01b0319831681179093556040519116919082907f8be0079c531659141344cd1fd0a4f28419497f9722a3daafe3b4186f6b6457e090600090a35050565b60006020808352835180602085015260005b81811015610a18578581018301518582016040015282016109fc565b506000604082860101526040601f19601f8301168501019250505092915050565b80356001600160a01b0381168114610a5057600080fd5b919050565b60008060408385031215610a6857600080fd5b610a7183610a39565b946020939093013593505050565b600080600060608486031215610a9457600080fd5b610a9d84610a39565b9250610aab60208501610a39565b9150604084013590509250925092565b600060208284031215610acd57600080fd5b610ad682610a39565b9392505050565b60008060408385031215610af057600080fd5b610af983610a39565b9150610b0760208401610a39565b90509250929050565b600181811c90821680610b2457607f821691505b602082108103610b4457634e487b7160e01b600052602260045260246000fd5b50919050565b634e487b7160e01b600052601160045260246000fd5b808201808211156102f0576102f0610b4a565b600181815b80851115610bae578160001904821115610b9457610b94610b4a565b80851615610ba157918102915b93841c9390800290610b78565b509250929050565b600082610bc5575060016102f0565b81610bd2575060006102f0565b8160018114610be85760028114610bf257610c0e565b60019150506102f0565b60ff841115610c0357610c03610b4a565b50506001821b6102f0565b5060208310610133831016604e8410600b8410161715610c31575081810a6102f0565b610c3b8383610b73565b8060001904821115610c4f57610c4f610b4a565b029392505050565b6000610ad660ff841683610bb6565b80820281158282048414176102f0576102f0610b4a56fea2646970667358221220b28684d312cbc93a6380d021db2b2edb141c3a2e360cbefeda1dc70b9b77291564736f6c63430008180033",
  "linkReferences": {},
  "deployedLinkReferences": {}
}